S01700004763634170706C69636174696F6E312E737265635B
S11300000C942A000C943F000C943F000C943F0085
S11300100C943F000C943F000C943F000C943F0060
S11300200C943F000C943F000C943F000C943F0050
S11300300C943F000C943F000C943F000C943F0040
S11300400C943F000C943F000C943F000C943F0030
S11300500C943F0011241FBECFE5D8E0DEBFCDBF16
S113006010E0A0E6B0E0EEEEF5E002C005900D92DF
S1130070AE38B107D9F70E9493020C94F5020C94A0
S11300800000672B09F09FC0009711F4D8980895D9
S11300908130910511F4D99808958230910511F4B5
S11300A0DA9808958330910511F4DB98089584302B
S11300B0910511F4DC9808958530910511F4DD98CB
S11300C008958630910511F4DE98089587309105DE
S11300D011F4DF9808958A30910511F4C0980895B9
S11300E08B30910511F4C19808958C30910511F469
S11300F0C29808958D30910511F4C39808958E30F7
S1130100910511F4C49808958F30910511F4C598A0
S113011008958031910511F4C698089581319105AF
S113012011F4C79808958431910511F4A89808959D
S11301308531910511F4A99808958631910511F43A
S1130140AA9808958731910511F4AB9808958831E0
S1130150910511F4AC9808958931910511F4AD9885
S113016008958A31910511F4AE9808958B31910563
S113017011F4AF9808958E31910511F49098089573
S11301808F31910511F4919808958032910511F4FD
S1130190929808958132910511F4939808958232CA
S11301A0910511F4949808958332910511F495986A
S11301B008958432910511F496980895859709F06D
S11301C09FC097980895009711F4D89A08958130A4
S11301D0910511F4D99A08958230910511F4DA9AAF
S11301E008958330910511F4DB9A089584309105C4
S11301F011F4DC9A08958530910511F4DD9A08957F
S11302008630910511F4DE9A08958730910511F432
S1130210DF9A08958A30910511F4C09A08958B30BD
S1130220910511F4C19A08958C30910511F4C29A84
S113023008958D30910511F4C39A08958E30910577
S113024011F4C49A08958F30910511F4C59A089554
S11302508031910511F4C69A08958131910511F404
S1130260C79A08958431910511F4A89A08958531A7
S1130270910511F4A99A08958631910511F4AA9A69
S113028008958731910511F4AB9A08958831910549
S113029011F4AC9A08958931910511F4AD9A089539
S11302A08A31910511F4AE9A08958B31910511F4B8
S11302B0AF9A08958E31910511F4909A08958F3173
S11302C0910511F4919A08958032910511F4929A4E
S11302D008958132910511F4939A0895823291051B
S11302E011F4949A08958332910511F4959A08951E
S11302F08432910511F4969A0895859709F4979A92
S11303000895CF93C82F80FF07C061E070E082E2B8
S113031090E00E94410006C060E070E082E290E05C
S11303200E944100C1FF07C061E070E083E290E0F9
S11303300E94410006C060E070E083E290E00E9409
S11303404100C2FF07C061E070E084E290E00E94D7
S1130350410006C060E070E084E290E00E94410049
S1130360C3FF07C061E070E085E290E00E944100B5
S113037006C060E070E085E290E00E944100CF9109
S11303800895CF93C82F60E070E08AE190E00E9466
S113039041008C2F0E94810161E070E08BE190E0CC
S11303A00E9441008FE99FE00197F1F700C000002F
S11303B060E070E08BE190E00E9441008FE99FE0F3
S11303C00197F1F700C00000CF91089580E00E94EA
S11303D0C10181E00E94C1010895CF93C62F8130ED
S11303E059F480E8860F82958F700E94C1018C2F8A
S11303F08F700E94C1010CC0823051F480EC860FD2
S113040082958F700E94C1018C2F8F700E94C10150
S1130410CF91089580E00E9481012FEF89EF90E051
S1130420215080409040E1F700C0000083E00E942A
S1130430C1018FE19EE40197F1F700C0000083E061
S11304400E94C1018FED9BEA0197F1F700C0000003
S113045083E00E94C10182E00E94C10182E00E9407
S1130460C10188E00E94C10180E00E94C1018CE0CA
S11304700E94C10180E00E94C10186E00E94C10186
S11304800895CF93C82F61E070E08AE190E00E9464
S113049041008C2F82958F700E94810161E070E091
S11304A08BE190E00E9441008FE99FE00197F1F712
S11304B000C0000060E070E08BE190E00E94410029
S11304C08FE99FE00197F1F700C000008C2F8F7037
S11304D00E94810161E070E08BE190E00E944100A4
S11304E08FE99FE00197F1F700C0000060E070E041
S11304F08BE190E00E9441008FE99FE00197F1F7C2
S113050000C00000CF910895CF93DF93EC01888160
S1130510882331F021960E94410289918111FBCFF9
S1130520DF91CF91089517BA8FEF84BB81BB2FEF72
S113053080E792E0215080409040E1F700C0000045
S11305400E940A020E94E60161E081E00E94ED013E
S1130550C0E0D0E080E090E001E010E0E12CF12C7C
S1130560009721F08130910591F0FACFB49BF8CF38
S11305700E94E60161E081E00E94ED0180E690E0E6
S11305800E948402C02FD12F802F912FE9CF209772
S113059069F40E94E60161E081E00E94ED0186E7D2
S11305A090E00E9484028E2D9F2DDACFC130D105B8
S11305B0B9F6B09B05C00E94E6018E2D9F2DD0CFC9
S11305C0B19B05C00E94E6018E2D9F2DC9CFB29B21
S11305D005C00E94E6018E2D9F2DC2CFB39BC0CFD4
S11105E00E94E6018E2D9F2DBBCFF894FFCF15
S11305EE506C65617365206361737420796F7572E5
S11305FE20766F7465004572726F72203A204E6FCA
S111060E7420417574686F726973656421000D
S9030000FC
