:100000000C942A000C9447000C9447000C94470071
:100010000C9447000C9447000C9447000C94CA03BE
:100020000C9447000C9447000C9447000C94470034
:100030000C9447000C9447000C9447000C94470024
:100040000C9447000C9447000C9447000C94470014
:100050000C94470011241FBECFE5D8E0DEBFCDBF12
:1000600010E0A0E6B0E0E6EBF8E002C005900D92EB
:10007000A238B107D9F720E0A2E8B0E001C01D9294
:10008000AA38B207E1F70E949B020C9459040C9421
:100090000000672B09F09FC0009711F4D8980895CD
:1000A0008130910511F4D99808958230910511F4A9
:1000B000DA9808958330910511F4DB98089584301F
:1000C000910511F4DC9808958530910511F4DD98BF
:1000D00008958630910511F4DE98089587309105D2
:1000E00011F4DF9808958A30910511F4C0980895AD
:1000F0008B30910511F4C19808958C30910511F45D
:10010000C29808958D30910511F4C39808958E30EA
:10011000910511F4C49808958F30910511F4C59894
:1001200008958031910511F4C698089581319105A3
:1001300011F4C79808958431910511F4A898089591
:100140008531910511F4A99808958631910511F42E
:10015000AA9808958731910511F4AB9808958831D4
:10016000910511F4AC9808958931910511F4AD9879
:1001700008958A31910511F4AE9808958B31910557
:1001800011F4AF9808958E31910511F49098089567
:100190008F31910511F4919808958032910511F4F1
:1001A000929808958132910511F4939808958232BE
:1001B000910511F4949808958332910511F495985E
:1001C00008958432910511F496980895859709F061
:1001D0009FC097980895009711F4D89A0895813098
:1001E000910511F4D99A08958230910511F4DA9AA3
:1001F00008958330910511F4DB9A089584309105B8
:1002000011F4DC9A08958530910511F4DD9A089572
:100210008630910511F4DE9A08958730910511F426
:10022000DF9A08958A30910511F4C09A08958B30B1
:10023000910511F4C19A08958C30910511F4C29A78
:1002400008958D30910511F4C39A08958E3091056B
:1002500011F4C49A08958F30910511F4C59A089548
:100260008031910511F4C69A08958131910511F4F8
:10027000C79A08958431910511F4A89A089585319B
:10028000910511F4A99A08958631910511F4AA9A5D
:1002900008958731910511F4AB9A0895883191053D
:1002A00011F4AC9A08958931910511F4AD9A08952D
:1002B0008A31910511F4AE9A08958B31910511F4AC
:1002C000AF9A08958E31910511F4909A08958F3167
:1002D000910511F4919A08958032910511F4929A42
:1002E00008958132910511F4939A0895823291050F
:1002F00011F4949A08958332910511F4959A089512
:100300008432910511F4969A0895859709F4979A85
:100310000895CF93C82F80FF07C061E070E082E2AC
:1003200090E00E94490006C060E070E082E290E048
:100330000E944900C1FF07C061E070E083E290E0E5
:100340000E94490006C060E070E083E290E00E94F5
:100350004900C2FF07C061E070E084E290E00E94C3
:10036000490006C060E070E084E290E00E9449002D
:10037000C3FF07C061E070E085E290E00E944900A1
:1003800006C060E070E085E290E00E944900CF91F5
:100390000895CF93C82F60E070E08AE190E00E945A
:1003A00049008C2F0E94890161E070E08BE190E0B0
:1003B0000E9449008FE99FE00197F1F700C000001B
:1003C00060E070E08BE190E00E9449008FE99FE0DF
:1003D0000197F1F700C00000CF91089580E00E94DE
:1003E000C90181E00E94C9010895CF93C62F8130D1
:1003F00059F480E8860F82958F700E94C9018C2F76
:100400008F700E94C9010CC0823051F480EC860FBD
:1004100082958F700E94C9018C2F8F700E94C90134
:10042000CF91089580E00E9489012FEF89EF90E03D
:10043000215080409040E1F700C0000083E00E941E
:10044000C9018FE19EE40197F1F700C0000083E04D
:100450000E94C9018FED9BEA0197F1F700C00000EF
:1004600083E00E94C90182E00E94C90182E00E94EB
:10047000C90188E00E94C90180E00E94C9018CE0A6
:100480000E94C90180E00E94C90186E00E94C90162
:100490000895CF93C82F61E070E08AE190E00E9458
:1004A00049008C2F82958F700E94890161E070E075
:1004B0008BE190E00E9449008FE99FE00197F1F7FE
:1004C00000C0000060E070E08BE190E00E94490015
:1004D0008FE99FE00197F1F700C000008C2F8F702B
:1004E0000E94890161E070E08BE190E00E94490088
:1004F0008FE99FE00197F1F700C0000060E070E035
:100500008BE190E00E9449008FE99FE00197F1F7AD
:1005100000C00000CF910895CF93DF93EC01888154
:10052000882331F021960E94490289918111FBCFE5
:10053000DF91CF910895CF93DF93CDB7DEB7C0544D
:10054000D1090FB6F894DEBF0FBECDBF17BA8FEF3B
:1005500084BB81BB8AEF90E09BBD8ABD89B7806177
:1005600089BF78942FEF80E792E02150804090403F
:10057000E1F700C000000E9412020E94EE0161E05B
:1005800081E00E94F501612C712C812C912CA12C11
:10059000B12CC12CD12C02E010E0EE24E394F12C1C
:1005A0000F2EFBE05F2EF02D80918600909187004A
:1005B0008130910509F46DC08230910509F4E5C0E0
:1005C0000097B1F7B69B09C0F0928300E0928200D9
:1005D0001093870000938600E7CF4AE050E0BE0109
:1005E0006F5F7F4FC6010E9419044AE050E0BE01D0
:1005F0006F5E7F4FC5010E9419044AE050E0BE01C2
:100600006F5D7F4FC4010E9419044AE050E0BE01B3
:100610006F5C7F4FC3010E941904BE016F5E7F4F64
:10062000CE0101960E940E04BE016F5D7F4FCE0188
:1006300001960E940E04BE016F5C7F4FCE010196B1
:100640000E940E0461E081E00E94F501CE01019656
:100650000E948C02B49BA8CFF0928500E0928400A7
:100660000E94EE0161E081E00E94F50180E690E0E9
:100670000E948C025EBCF0928700E09286002FEF11
:1006800083EC99E0215080409040E1F700C00000E9
:100690008BCFB69B1CC010928500109284008EB543
:1006A000887F8EBD12BE10928900109288000E9431
:1006B000EE0110938700009386002FEF83EC99E002
:1006C000215080409040E1F700C000006DCFB49B06
:1006D0001CC010928500109284008EB5887F8EBD5C
:1006E00012BE10928900109288000E94EE011092B2
:1006F0008700109286002FEF83EC99E02150804014
:100700009040E1F700C000004FCFB09B0EC0A89A08
:100710002FEFC21AD20A8EB5887F8EBD1092870045
:10072000109286000E94EE013FCFB19B0EC0A99AA5
:100730008FEFA81AB80A8EB5887F8EBD10928700F9
:10074000109286000E94EE012FCFB29B0EC0AA9A93
:100750009FEF891A990A8EB5887F8EBD1092870007
:10076000109286000E94EE011FCFB39B1DCFAB9A63
:100770002FEF621A720A8EB5887F8EBD10928700A5
:10078000109286000E94EE010FCF86E790E00E9453
:100790008C020ACF1F920F920FB60F9211242F9343
:1007A0003F934F935F936F937F938F939F93AF93F9
:1007B000BF93EF93FF9380918800909189000196F9
:1007C000909389008093880080918800909189009F
:1007D0008031974291F410928500109284008EB57A
:1007E000887F8EBD12BE10928900109288000E94F0
:1007F000EE011092870010928600FF91EF91BF9159
:10080000AF919F918F917F916F915F914F913F91A8
:100810002F910F900FBE0F901F901895FB01DC01D8
:100820000D900020E9F7119701900D920020E1F75B
:1008300008954532510520F4423010F00C94240400
:10084000FB011082CB010895BB274A3031F4992374
:1008500022F4BDE2909581959F4F0C943004BB2704
:10086000FB015527AA27880F991FAA1FA41710F06C
:10087000A41B83955051B9F7A05DAA3308F0A95D78
:10088000A193009779F7B111B1931192CB010C9418
:100890004904DC01FC01672F71917723E1F732975E
:1008A00004C07C916D9370836291AE17BF07C8F34B
:0608B0000895F894FFCF4B
:1008B600506C65617365206361737420796F75721E
:1008C60020766F74650041446D696E204D6F6465D6
:0208D600000020
:00000001FF
