S01700004763634170706C69636174696F6E312E737265635B
S11300000C942A000C9447000C9447000C9447006D
S11300100C9447000C9447000C9447000C94470040
S11300200C9447000C9447000C9447000C94470030
S11300300C9447000C9447000C9447000C94470020
S11300400C9447000C9447000C9447000C94470010
S11300500C94470011241FBECFE5D8E0DEBFCDBF0E
S113006010E0A0E6B0E0E2EAF7E002C005900D92ED
S1130070A637B107D9F720E0A6E7B0E001C01D928A
S1130080AC37B207E1F70E949B020C94CF030C94A7
S11300900000672B09F09FC0009711F4D8980895C9
S11300A08130910511F4D99808958230910511F4A5
S11300B0DA9808958330910511F4DB98089584301B
S11300C0910511F4DC9808958530910511F4DD98BB
S11300D008958630910511F4DE98089587309105CE
S11300E011F4DF9808958A30910511F4C0980895A9
S11300F08B30910511F4C19808958C30910511F459
S1130100C29808958D30910511F4C39808958E30E6
S1130110910511F4C49808958F30910511F4C59890
S113012008958031910511F4C6980895813191059F
S113013011F4C79808958431910511F4A89808958D
S11301408531910511F4A99808958631910511F42A
S1130150AA9808958731910511F4AB9808958831D0
S1130160910511F4AC9808958931910511F4AD9875
S113017008958A31910511F4AE9808958B31910553
S113018011F4AF9808958E31910511F49098089563
S11301908F31910511F4919808958032910511F4ED
S11301A0929808958132910511F4939808958232BA
S11301B0910511F4949808958332910511F495985A
S11301C008958432910511F496980895859709F05D
S11301D09FC097980895009711F4D89A0895813094
S11301E0910511F4D99A08958230910511F4DA9A9F
S11301F008958330910511F4DB9A089584309105B4
S113020011F4DC9A08958530910511F4DD9A08956E
S11302108630910511F4DE9A08958730910511F422
S1130220DF9A08958A30910511F4C09A08958B30AD
S1130230910511F4C19A08958C30910511F4C29A74
S113024008958D30910511F4C39A08958E30910567
S113025011F4C49A08958F30910511F4C59A089544
S11302608031910511F4C69A08958131910511F4F4
S1130270C79A08958431910511F4A89A0895853197
S1130280910511F4A99A08958631910511F4AA9A59
S113029008958731910511F4AB9A08958831910539
S11302A011F4AC9A08958931910511F4AD9A089529
S11302B08A31910511F4AE9A08958B31910511F4A8
S11302C0AF9A08958E31910511F4909A08958F3163
S11302D0910511F4919A08958032910511F4929A3E
S11302E008958132910511F4939A0895823291050B
S11302F011F4949A08958332910511F4959A08950E
S11303008432910511F4969A0895859709F4979A81
S11303100895CF93C82F80FF07C061E070E082E2A8
S113032090E00E94490006C060E070E082E290E044
S11303300E944900C1FF07C061E070E083E290E0E1
S11303400E94490006C060E070E083E290E00E94F1
S11303504900C2FF07C061E070E084E290E00E94BF
S1130360490006C060E070E084E290E00E94490029
S1130370C3FF07C061E070E085E290E00E9449009D
S113038006C060E070E085E290E00E944900CF91F1
S11303900895CF93C82F60E070E08AE190E00E9456
S11303A049008C2F0E94890161E070E08BE190E0AC
S11303B00E9449008FE99FE00197F1F700C0000017
S11303C060E070E08BE190E00E9449008FE99FE0DB
S11303D00197F1F700C00000CF91089580E00E94DA
S11303E0C90181E00E94C9010895CF93C62F8130CD
S11303F059F480E8860F82958F700E94C9018C2F72
S11304008F700E94C9010CC0823051F480EC860FB9
S113041082958F700E94C9018C2F8F700E94C90130
S1130420CF91089580E00E9489012FEF89EF90E039
S1130430215080409040E1F700C0000083E00E941A
S1130440C9018FE19EE40197F1F700C0000083E049
S11304500E94C9018FED9BEA0197F1F700C00000EB
S113046083E00E94C90182E00E94C90182E00E94E7
S1130470C90188E00E94C90180E00E94C9018CE0A2
S11304800E94C90180E00E94C90186E00E94C9015E
S11304900895CF93C82F61E070E08AE190E00E9454
S11304A049008C2F82958F700E94890161E070E071
S11304B08BE190E00E9449008FE99FE00197F1F7FA
S11304C000C0000060E070E08BE190E00E94490011
S11304D08FE99FE00197F1F700C000008C2F8F7027
S11304E00E94890161E070E08BE190E00E94490084
S11304F08FE99FE00197F1F700C0000060E070E031
S11305008BE190E00E9449008FE99FE00197F1F7A9
S113051000C00000CF910895CF93DF93EC01888150
S1130520882331F021960E94490289918111FBCFE1
S1130530DF91CF910895CF93DF93CDB7DEB7C05449
S1130540D1090FB6F894DEBF0FBECDBF17BA8FEF37
S113055084BB81BB8AEF90E09BBD8ABD89B7806173
S113056089BF78942FEF80E792E02150804090403B
S1130570E1F700C000000E9412020E94EE0161E057
S113058081E00E94F501A12CB12CC12CD12CE12CCD
S1130590F12C00E010E088248394912C0F2EFBE0D2
S11305A07F2EF02D8091780090917900009729F0AA
S11305B08130910509F454C0F9CF4AE050E0BE01FE
S11305C06F5F7F4FC8010E948F034AE050E0BE0175
S11305D06F5E7F4FC7010E948F034AE050E0BE0167
S11305E06F5D7F4FC6010E948F034AE050E0BE0159
S11305F06F5C7F4FC5010E948F03BE016F5E7F4F0A
S1130600CE0101960E948403BE016F5D7F4FCE012F
S113061001960E948403BE016F5C7F4FCE01019658
S11306200E94840361E081E00E94F501CE010196FD
S11306300E948C02B49BB6CF909277008092760091
S11306400E94EE0161E081E00E94F50180E690E005
S11306500E948C027EBC9092790080927800A2CF96
S1130660B49B13C010927700109276008EB5887FE9
S11306708EBD12BE10927B0010927A000E94EE0191
S113068090927900809278008DCFB09B0DC0A89A8B
S11306900F5F1F4F8EB5887F8EBD10927900109228
S11306A078000E94EE017ECFB19B0EC0A99A2FEF75
S11306B0E21AF20A8EB5887F8EBD109279001092EC
S11306C078000E94EE016ECFB29B0EC0AA9A8FEF03
S11306D0C81AD80A8EB5887F8EBD10927900109200
S11306E078000E94EE015ECFB39B5CCFAB9A9FEF84
S11306F0A91AB90A8EB5887F8EBD1092790010921E
S113070078000E94EE014ECFFB01DC010D90002029
S1130710E9F7119701900D920020E1F70895453211
S1130720510520F4423010F00C949A03FB0110821E
S1130730CB010895BB274A3031F4992322F4BDE25A
S1130740909581959F4F0C94A603BB27FB015527D9
S1130750AA27880F991FAA1FA41710F0A41B83951A
S11307605051B9F7A05DAA3308F0A95DA193009791
S113077079F7B111B1931192CB010C94BF03DC0151
S1130780FC01672F71917723E1F7329704C07C91C4
S11307906D9370836291AE17BF07C8F30895F89400
S10507A0FFCF85
S11307A2506C65617365206361737420796F75722F
S10907B220766F7465005F
S9030000FC
